:100000005EC00000ABC10000D0C100007FC0000096
:100010007DC000007BC0000079C00000DEC500008C
:1000200075C0000073C0000071C000006FC0000008
:100030006DC0000038C6000069C0000067C0000045
:10004000DBC1000063C0000026C4000056C40000ED
:100050005DC000005BC0000059C0000057C0000038
:1000600055C0000053C0000000000008000201005D
:100070000003040700000000000000000102040863
:100080001020408001020408102001020408102002
:10009000040404040404040402020202020203032E
:1000A0000303030300000000250028002B000000CC
:1000B0000000240027002A000200A2040E051124DB
:1000C0001FBECFEFD8E0DEBFCDBF11E0A0E0B1E0B2
:1000D000EEE4F1E102C005900D92AC33B107D9F71F
:1000E00022E0ACE3B1E001C01D92AD31B207E1F70F
:1000F00010E0CFE5D0E004C02197FE010E949F08E8
:10010000CD35D107C9F731D60C94A50879CFCF9258
:10011000DF92EF92FF926B017C018EE0C816D10452
:10012000E104F10428F48EE0C80ED11CE11CF11C9E
:1001300060E08C2D2CD2C601FF90EF90DF90CF9025
:1001400008950895CF93DF93EB01DBD199838883E2
:10015000DF91CF9108950895662311F061E001C009
:1001600060E015C2662311F061E001C060E04BC29F
:10017000CF92DF92EF92FF921F93CF93DF9300D045
:10018000CDB7DEB7C0900E01D0900F01E090100106
:10019000F0901101A701960160910D0270910E027D
:1001A00080910F029091100223D6882341F0C092D3
:1001B0000D02D0920E02E0920F02F0921002809196
:1001C0000B0290910C02C7DF43E050E0BE016F5F6D
:1001D0007F4F80910B0290910C02B4DF69817A818C
:1001E00080E090E071D6209112013091130140918E
:1001F0001401509115011ED720911601309117015D
:100200004091180150911901F7D520911A013091B0
:100210001B0140911C0150911D010CD711E0209150
:100220000A0130910B0140910C0150910D01FED655
:1002300087FD10E0612F86E095DF81E0612F682760
:1002400085E090DF0F900F90DF91CF911F91FF908D
:10025000EF90DF90CF900895CF92DF92EF92FF92D0
:100260001F93CF93DF931092F4011092F301C5EF27
:10027000D1E088E2FE0111928A95E9F722E32E830C
:1002800093E39F8384E3888785E3898786E38A876E
:1002900087E38B8788E38C8789E38D8781E38E876B
:1002A00030E33F87888B898B8A8B2B8B8C8B9D8B44
:1002B00080910E0190910F01A0911001B091110158
:1002C000888F998FAA8FBB8FC12CD12C7601C394B4
:1002D000C982DA82EB82FC8264E070E080E090E028
:1002E00016DF9F8B8E8B20E030E0A90160E070E08C
:1002F00028DF11E01D831AA21FA2CBA2DCA2EDA26F
:10030000FEA261E086E028DF1FA31C8E19A2CD8E1D
:10031000DE8EEF8EF8A261E085E01EDF19A3DF918B
:10032000CF911F91FF90EF90DF90CF900895809133
:10033000F501811103C081E08093F50180911702DE
:10034000811103C081E08093170280911102811115
:1003500003C081E080931102089508951F920F92C7
:100360000FB60F9211242F933F934F935F936F9388
:100370007F938F939F93AF93BF93EF93FF93E091FE
:100380001E01F0911F010995FF91EF91BF91AF916F
:100390009F918F917F916F915F914F913F912F919D
:1003A0000F900FBE0F901F9018951F920F920FB6CF
:1003B0000F9211242F933F934F935F936F937F93EB
:1003C0008F939F93AF93BF93EF93FF93E09120019F
:1003D000F09121010995FF91EF91BF91AF919F910C
:1003E0008F917F916F915F914F913F912F910F90DE
:1003F0000FBE0F901F9018951F920F920FB60F927D
:1004000011242F933F938F939F93AF93BF9380912A
:100410003D0190913E01A0913F01B091400130918A
:100420003C0123E0230F2D3720F40196A11DB11DBF
:1004300005C026E8230F0296A11DB11D20933C01A3
:1004400080933D0190933E01A0933F01B093400102
:100450008091410190914201A0914301B0914401EA
:100460000196A11DB11D8093410190934201A0937B
:100470004301B0934401BF91AF919F918F913F9100
:100480002F910F900FBE0F901F901895789484B500
:10049000826084BD84B5816084BD85B5826085BD80
:1004A00085B5816085BDEEE6F0E080818160808366
:1004B000E1E8F0E010828081826080838081816049
:1004C0008083E0E8F0E0808181608083E1EBF0E010
:1004D000808184608083E0EBF0E0808181608083B4
:1004E000EAE7F0E08081846080838081826080839D
:1004F0008081816080838081806880831092C100C8
:1005000008958E3008F08E5087702091220190E47B
:10051000299F90011124822B80937C0080917A0086
:10052000806480937A0080917A0086FDFCCF809170
:1005300078002091790090E0922B0895833081F02B
:1005400028F4813099F08230A1F008958730A9F025
:100550008830B9F08430D1F4809180008F7D03C061
:10056000809180008F7780938000089584B58F7785
:1005700002C084B58F7D84BD08958091B0008F77CF
:1005800003C08091B0008F7D8093B0000895CF9319
:10059000DF9390E0FC01E458FF4F2491FC01E05709
:1005A000FF4F8491882361F190E0880F991FFC012F
:1005B000E255FF4FC591D491FC01EC55FF4FA59139
:1005C000B491611109C09FB7F89488812095822366
:1005D0008883EC912E230BC0623061F49FB7F894AE
:1005E0003881822F809583238883EC912E2B2C9346
:1005F0009FBF06C08FB7F894E8812E2B28838FBF4A
:10060000DF91CF9108951F93CF93DF93282F30E090
:10061000F901E859FF4F8491F901E458FF4FD49153
:10062000F901E057FF4FC491CC23C1F0162F81117F
:1006300085DFEC2FF0E0EE0FFF1FEC55FF4FA5918B
:10064000B4918FB7F894111105C09C91ED2FE095EE
:10065000E92302C0EC91ED2BEC938FBFDF91CF919A
:100660001F910895FC01918D228D892F90E0805C6F
:100670009F4F821B91098F7399270895FC01918DDB
:10068000828D981731F0828DE80FF11D858D90E0F5
:1006900008958FEF9FEF0895FC01918D828D98173B
:1006A00061F0828DDF01A80FB11D5D968C91928D56
:1006B0009F5F9F73928F90E008958FEF9FEF089553
:1006C000FC01848DDF01A80FB11DA35ABF4F2C91EF
:1006D000848D90E001968F739927848FA689B789BE
:1006E0002C93A089B1898C9180648C93938D848D97
:1006F000981306C00288F389E02D80818F7D808366
:100700000895CF93DF93EC01888D8823C1F0EA89A7
:10071000FB89808185FD05C0A889B9898C9186FDFA
:100720000EC00FB607FCF5CF808185FFF2CFA889F8
:10073000B9898C9185FFEDCFCE01C2DFE8CFDF9183
:10074000CF910895EF92FF920F931F93CF93DF9372
:10075000EC0181E0888F9B8D8C8D981305C0E88912
:10076000F989808185FD23C0F62E0B8D10E00F5F87
:100770001F4F0F731127E02E8C8DE8120BC00FB6A0
:1007800007FCFACFE889F989808185FFF5CFCE0192
:1007900097DFF2CF8B8DFE01E80FF11DE35AFF4F7B
:1007A000F0820B8FEA89FB898081806207C0EE8925
:1007B000FF896083E889F98980818064808381E092
:1007C00090E0DF91CF911F910F91FF90EF900895EE
:1007D000CF92DF92EF92FF921F93CF93DF93EC01C2
:1007E0006A017B01122FE889F98982E08083411533
:1007F000514E61057105A9F060E079E08DE390E06C
:10080000A70196017AD4DA01C9010197A109B109BA
:10081000B695A79597958795AC01411580E1580746
:10082000A0F0E889F989108260E874E88EE190E030
:10083000A701960162D4BA01A90141505109610989
:1008400071097695679557954795EC85FD85508399
:10085000EE85FF854083188EEC89FD891083EA8937
:10086000FB89808180618083EA89FB89808188603F
:100870008083EA89FB89808180688083EA89FB899B
:1008800080818F7D8083DF91CF911F91FF90EF90CA
:10089000DF90CF9008951F920F920FB60F92112400
:1008A0002F938F939F93EF93FF93E0915501F091D6
:1008B00056018081E0915B01F0915C0182FD12C0E4
:1008C000908180915E018F5F8F7320915F0182170D
:1008D00051F0E0915E01F0E0EB5BFE4F958F80936D
:1008E0005E0101C08081FF91EF919F918F912F91C7
:1008F0000F900FBE0F901F9018951F920F920FB67A
:100900000F9211242F933F934F935F936F937F9395
:100910008F939F93AF93BF93EF93FF9385E491E001
:10092000CFDEFF91EF91BF91AF919F918F917F911A
:100930006F915F914F913F912F910F900FBE0F904C
:100940001F901895E5E4F1E01382128288EE93E09F
:10095000A0E0B0E084839583A683B7838AE291E028
:100960009183808385EC90E09587848784EC90E088
:100970009787868780EC90E0918B808B81EC90E06C
:10098000938B828B82EC90E0958B848B86EC90E04D
:10099000978B868B118E128E138E148E08958F92E4
:1009A0009F92AF92BF92CF92DF92EF92FF920F93FE
:1009B0001F93CF93DF937C018B016C0182E0C80E03
:1009C000D11C4701E5E08E0E911CC0E0D0E0F6019D
:1009D00061916F014AE050E0C801C5D05C016EE250
:1009E000C80167D08A0D9B1DC80FD91FC814D90430
:1009F00071F74AE050E0F7016581C801B4D08C0F6F
:100A00009D1FDF91CF911F910F91FF90EF90DF908D
:100A1000CF90BF90AF909F908F900895E2EEF1E05D
:100A20008AE391E09183808312821382148215827B
:100A30000895CF92DF92EF92FF920F931F93CF937F
:100A4000DF936C017A018B01C0E0D0E0CE15DF05A9
:100A500089F0D8016D918D01D601ED91FC91019045
:100A6000F081E02DC6010995892B11F47E0102C0A9
:100A70002196ECCFC701DF91CF911F910F91FF908D
:100A8000EF90DF90CF9008956115710579F0FB012B
:100A900001900020E9F73197AF01461B570BDC01AD
:100AA000ED91FC910280F381E02D099480E090E0CB
:100AB0000895DC01ED91FC910190F081E02D099405
:100AC0004F925F926F927F92EF92FF920F931F93DC
:100AD000CF93DF93CDB7DEB7A1970FB6F894DEBF03
:100AE0000FBECDBF7C01FA01CB0119A2223008F460
:100AF0002AE08E010F5D1F4F422E512C612C712C6C
:100B0000BF01A3019201F9D2F901CA0101501109F3
:100B10006A3014F4605D01C0695CD8016C93232BCA
:100B2000242B252B69F7B801C701AEDFA1960FB6BC
:100B3000F894DEBF0FBECDBFDF91CF911F910F9113
:100B4000FF90EF907F906F905F904F9008952115E8
:100B5000310541F4DC01ED91FC910190F081E02D33
:100B6000642F0994ADCF9A01462F50E060E070E009
:100B7000EECF813039F018F0823051F008951092A4
:100B80006E00089580916F008D7F80936F000895AF
:100B9000809170008D7F8093700081E08093B00021
:100BA0008091B100887F84608093B1001092B3007F
:100BB0000895CF93C82F809123018C1307C0E8EBD1
:100BC000F0E0E4918FEF8093230101C0EFEF8E2FCF
:100BD000D0DF60E08C2FCF9116CD1F920F920FB611
:100BE0000F9211242F933F934F935F936F937F93B3
:100BF0008F939F93AF93BF93EF93FF938091EB01FC
:100C00009091EC01A091ED01B091EE01892B8A2B1E
:100C10008B2B51F18091E801E091E901F091EA011B
:100C20009081892780838091EB019091EC01A091C4
:100C3000ED01B091EE01181619061A061B06BCF458
:100C40008091EB019091EC01A091ED01B091EE014A
:100C50000197A109B1098093EB019093EC01A09356
:100C6000ED01B093EE0103C080912301A2DFFF915B
:100C7000EF91BF91AF919F918F917F916F915F9114
:100C80004F913F912F910F900FBE0F901F9018958D
:100C900040E855E260E070E080E090E000C026E0CF
:100CA00085E491E095CD1F920F920FB60F9211241B
:100CB0002F933F934F935F936F937F938F939F9364
:100CC000AF93BF93EF93FF9387EF92EC90938500E0
:100CD0008093840032D0FF91EF91BF91AF919F91AB
:100CE0008F917F916F915F914F913F912F910F90D5
:100CF0000FBE0F901F90189587EF92EC9093850090
:100D000080938400AFE6B0E08C918E7F8C93E0E816
:100D1000F0E080818C7F8083E1E8F0E08081877E55
:100D2000808380818560808380818D7F80838C91AA
:100D300081608C93089581E008958091F00191E0A5
:100D4000980F9093F001882339F021E030E0309340
:100D5000F2012093F10106C078940ADAF8948091A8
:100D6000F00181508093F00108950F931F93CF936A
:100D7000DF931F92CDB7DEB781E0898387DB88DF01
:100D80000091240110912501F8011182108264DA8A
:100D9000B3DF81E0F80120813181232B09F080E06D
:100DA00089837894789489818823C1F081E0F8015F
:100DB00020813181232B09F480E08093EF01909111
:100DC000EF0181E0911180E089838981882311F00E
:100DD000B2DF02C080E090E08983E5CFA8DAF89422
:100DE00080E090E00F90DF91CF911F910F910895D7
:100DF000A8D008F481E008950CD0DEC0D6D040F031
:100E0000CDD030F021F45F3F19F0BFC0511108C1BF
:100E1000C2C0E3D098F39923C9F35523B1F3951BCE
:100E2000550BBB27AA2762177307840738F09F5F0B
:100E30005F4F220F331F441FAA1FA9F333D00E2E7A
:100E40003AF0E0E830D091505040E695001CCAF7E7
:100E500029D0FE2F27D0660F771F881FBB1F2617AC
:100E600037074807AB07B0E809F0BB0B802DBF017F
:100E7000FF2793585F4F2AF09E3F510568F085C0C9
:100E8000CFC05F3FECF3983EDCF38695779567958E
:100E9000B795F7959F5FC9F7880F911D9695879530
:100EA00097F90895E1E0660F771F881FBB1F62174F
:100EB00073078407BA0720F0621B730B840BBA0B0D
:100EC000EE1F88F7E0950895E89409C097FB3EF47B
:100ED00090958095709561957F4F8F4F9F4F992387
:100EE000A9F0F92F96E9BB279395F6958795779505
:100EF0006795B795F111F8CFFAF4BB0F11F460FFC5
:100F00001BC06F5F7F4F8F4F9F4F16C0882311F01C
:100F100096E911C0772321F09EE8872F762F05C030
:100F2000662371F096E8862F70E060E02AF09A95CB
:100F3000660F771F881FDAF7880F9695879597F9C0
:100F40000895990F0008550FAA0BE0E8FEEF16165A
:100F50001706E807F907C0F012161306E407F507AD
:100F600098F0621B730B840B950B39F40A2661F021
:100F7000232B242B252B21F408950A2609F4A140C4
:100F8000A6958FEF811D811D089597F99F6780E8D1
:100F900070E060E008959FEF80EC089500240A94CB
:100FA0001616170618060906089500240A94121644
:100FB0001306140605060895092E0394000C11F477
:100FC000882352F0BB0F40F4BF2B11F460FF04C024
:100FD0006F5F7F4F8F4F9F4F089557FD9058440F7D
:100FE000551F59F05F3F71F04795880F97FB991F88
:100FF00061F09F3F79F08795089512161306140645
:10100000551FF2CF4695F1DF08C0161617061806D1
:10101000991FF1CF86957105610508940895E894AC
:10102000BB2766277727CB0197F908958ADF08F455
:101030008FEF08950BD0C0CFB1DF28F0B6DF18F0E6
:10104000952309F0A2CFA7CF1124EACFC6DFA0F3E2
:10105000959FD1F3950F50E0551F629FF001729F4D
:10106000BB27F00DB11D639FAA27F00DB11DAA1F6C
:10107000649F6627B00DA11D661F829F2227B00DB9
:10108000A11D621F739FB00DA11D621F839FA00D44
:10109000611D221F749F3327A00D611D231F849F94
:1010A000600D211D822F762F6A2F11249F575040EB
:1010B0008AF0E1F088234AF0EE0FFF1FBB1F661F86
:1010C000771F881F91505040A9F79E3F510570F03F
:1010D0005CCFA6CF5F3FECF3983EDCF38695779527
:1010E0006795B795F795E7959F5FC1F7FE2B880F3A
:1010F000911D9695879597F90895A1E21A2EAA1B3E
:10110000BB1BFD010DC0AA1FBB1FEE1FFF1FA217B7
:10111000B307E407F50720F0A21BB30BE40BF50BB4
:10112000661F771F881F991F1A9469F7609570953D
:10113000809590959B01AC01BD01CF010895EE0F04
:0E114000FF1F0590F491E02D0994F894FFCF65
:10114E0000001D028000010000000000F0410000C0
:10115E00803F0000A040000080440000C842AD0166
:10116E00AD0101FFF30100000000A20319053203D7
:0C117E004C033E03810300000000CF047E
:00000001FF
