:100000005EC0000043C1000068C100007DC0000068
:100010007BC0000079C0000077C00000B6C50000BA
:1000200073C0000018C600006FC000006DC0000063
:100030006BC0000069C0000067C0000065C0000020
:1000400073C1000061C00000FEC300002EC40000A8
:100050005BC0000059C0000057C0000055C0000040
:1000600053C0000051C00000000000080002010061
:100070000003040700000000000000000102040863
:100080001020408001020408102001020408102002
:10009000040404040404040402020202020203032E
:1000A0000303030300000000250028002B000000CC
:1000B0000000240027002A0002007A04E60411242C
:1000C0001FBECFEFD8E0DEBFCDBF11E0A0E0B1E0B2
:1000D000E6E1F0E102C005900D92A033B107D9F737
:1000E00022E0A0E3B1E001C01D92A230B207E1F727
:1000F00010E0CFE5D0E003C02197FE0184D7CD35D5
:10010000D107D1F70AD685C77BCF1F93CF93DF9353
:100110001F92CDB7DEB7162F61E0812F79830FD202
:10012000812F7981972F0F90DF91CF911F910895A3
:100130000895CF93C82FCB01BA0136D68C2FCF911B
:1001400078C1CF92DF92EF92FF9220910E01309111
:100150000F01409110015091110160910A017091BD
:100160000B0180910C0190910D01C8D66B017C01AF
:1001700020E030E04FE753E413D687FF0CC020E0C7
:1001800030E0A901C701B601B5D6181654F0C12C4C
:10019000D12C760106C0C12CD12C8FE7E82E83E448
:1001A000F82EB701A6018091FE019091FF01FF900A
:1001B000EF90DF90CF90BDCFEF92FF920F931F9300
:1001C000CF93DF931092010210920002C8EED1E0AB
:1001D00088E1FE0111928A95E9F722E32E8393E3E9
:1001E0009F8384E3888785E3898786E38A8787E31B
:1001F0008B8788E38C8789E38D8781E38E8730E363
:100200003F87888B898B8A8B2B8B8C8B9D8B81E096
:1002100090E0A0E0B0E089839A83AB83BC83E12CBB
:10022000F12C8701A80197016AE070E080E090E07E
:100230006CDF9F8B8E8B7CDF81E08D83DF91CF9194
:100240001F910F91FF90EF9008958091E801811127
:100250001BC081E08093E8018091E9019091EA015F
:10026000A091EB01B091EC010197A105B10561F4FA
:100270008091ED01882341F040E050E0BA01809187
:10028000FE019091FF0155CF089508951F920F929E
:100290000FB60F9211242F933F934F935F936F9359
:1002A0007F938F939F93AF93BF93EF93FF93E091CF
:1002B0001201F09113010995FF91EF91BF91AF9158
:1002C0009F918F917F916F915F914F913F912F916E
:1002D0000F900FBE0F901F9018951F920F920FB6A0
:1002E0000F9211242F933F934F935F936F937F93BC
:1002F0008F939F93AF93BF93EF93FF93E09114017C
:10030000F09115010995FF91EF91BF91AF919F91E8
:100310008F917F916F915F914F913F912F910F90AE
:100320000FBE0F901F9018951F920F920FB60F924D
:1003300011242F933F938F939F93AF93BF938091FB
:10034000310190913201A0913301B091340130918B
:10035000300123E0230F2D3720F40196A11DB11D9C
:1003600005C026E8230F0296A11DB11D2093300180
:100370008093310190933201A0933301B093340103
:100380008091350190913601A0913701B0913801EB
:100390000196A11DB11D8093350190933601A09364
:1003A0003701B0933801BF91AF919F918F913F91E9
:1003B0002F910F900FBE0F901F901895789484B5D1
:1003C000826084BD84B5816084BD85B5826085BD51
:1003D00085B5816085BDEEE6F0E080818160808337
:1003E000E1E8F0E01082808182608083808181601A
:1003F0008083E0E8F0E0808181608083E1EBF0E0E1
:10040000808184608083E0EBF0E080818160808384
:10041000EAE7F0E08081846080838081826080836D
:100420008081816080838081806880831092C10098
:1004300008951F93CF93DF93182FEB0161E07FD0D6
:10044000209711F460E004C0CF3FD10531F461E0A2
:10045000812FDF91CF911F91AEC0E12FF0E0E859DD
:10046000FF4FE491E330F9F048F4E130B9F0E230C5
:10047000A1F584B5806284BDC8BD34C0E730E9F021
:10048000E83019F1E43049F5809180008062809372
:100490008000D0938B00C0938A0024C084B580680C
:1004A00084BDC7BD1FC0809180008068809380009C
:1004B000D0938900C093880015C08091B0008068F7
:1004C0008093B000C093B3000DC08091B0008062F3
:1004D0008093B000C093B40005C0C038D1050CF0C3
:1004E000B6CFB0CFDF91CF911F910895833081F0C7
:1004F00028F4813099F08230A1F008958730A9F076
:100500008830B9F08430D1F4809180008F7D03C0B1
:10051000809180008F7780938000089584B58F77D5
:1005200002C084B58F7D84BD08958091B0008F771F
:1005300003C08091B0008F7D8093B0000895CF9369
:10054000DF9390E0FC01E458FF4F2491FC01E05759
:10055000FF4F8491882361F190E0880F991FFC017F
:10056000E255FF4FC591D491FC01EC55FF4FA59189
:10057000B491611109C09FB7F894888120958223B6
:100580008883EC912E230BC0623061F49FB7F894FE
:100590003881822F809583238883EC912E2B2C9396
:1005A0009FBF06C08FB7F894E8812E2B28838FBF9A
:1005B000DF91CF9108951F93CF93DF93282F30E0E1
:1005C000F901E859FF4F8491F901E458FF4FD491A4
:1005D000F901E057FF4FC491CC23C1F0162F8111D0
:1005E00085DFEC2FF0E0EE0FFF1FEC55FF4FA591DC
:1005F000B4918FB7F894111105C09C91ED2FE0953F
:10060000E92302C0EC91ED2BEC938FBFDF91CF91EA
:100610001F910895FC01918D228D892F90E0805CBF
:100620009F4F821B91098F7399270895FC01918D2B
:10063000828D981731F0828DE80FF11D858D90E045
:1006400008958FEF9FEF0895FC01918D828D98178B
:1006500061F0828DDF01A80FB11D5D968C91928DA6
:100660009F5F9F73928F90E008958FEF9FEF0895A3
:10067000FC01848DDF01A80FB11DA35ABF4F2C913F
:10068000848D90E001968F739927848FA689B7890E
:100690002C93A089B1898C9180648C93938D848DE7
:1006A000981306C00288F389E02D80818F7D8083B6
:1006B0000895CF93DF93EC01888D8823C1F0EA89F8
:1006C000FB89808185FD05C0A889B9898C9186FD4B
:1006D0000EC00FB607FCF5CF808185FFF2CFA88949
:1006E000B9898C9185FFEDCFCE01C2DFE8CFDF91D4
:1006F000CF910895EF92FF920F931F93CF93DF93C3
:10070000EC0181E0888F9B8D8C8D981305C0E88962
:10071000F989808185FD23C0F62E0B8D10E00F5FD7
:100720001F4F0F731127E02E8C8DE8120BC00FB6F0
:1007300007FCFACFE889F989808185FFF5CFCE01E2
:1007400097DFF2CF8B8DFE01E80FF11DE35AFF4FCB
:10075000F0820B8FEA89FB898081806207C0EE8975
:10076000FF896083E889F98980818064808381E0E2
:1007700090E0DF91CF911F910F91FF90EF9008953E
:10078000CF92DF92EF92FF921F93CF93DF93EC0112
:100790006A017B01122FE889F98982E08083411583
:1007A000514E61057105A9F060E079E08DE390E0BC
:1007B000A701960106D4DA01C9010197A109B1097F
:1007C000B695A79597958795AC01411580E1580797
:1007D000A0F0E889F989108260E874E88EE190E081
:1007E000A7019601EED3BA01A9014150510961094F
:1007F00071097695679557954795EC85FD855083EA
:10080000EE85FF854083188EEC89FD891083EA8987
:10081000FB89808180618083EA89FB89808188608F
:100820008083EA89FB89808180688083EA89FB89EB
:1008300080818F7D8083DF91CF911F91FF90EF901A
:10084000DF90CF9008951F920F920FB60F92112450
:100850002F938F939F93EF93FF93E0914901F09132
:100860004A018081E0914F01F091500182FD12C058
:100870009081809152018F5F8F7320915301821775
:1008800051F0E0915201F0E0E75CFE4F958F8093CC
:10089000520101C08081FF91EF919F918F912F9123
:1008A0000F900FBE0F901F9018951F920F920FB6CA
:1008B0000F9211242F933F934F935F936F937F93E6
:1008C0008F939F93AF93BF93EF93FF9389E391E04F
:1008D000CFDEFF91EF91BF91AF919F918F917F916B
:1008E0006F915F914F913F912F910F900FBE0F909D
:1008F0001F901895E9E3F1E01382128288EE93E0ED
:10090000A0E0B0E084839583A683B7838DE191E076
:100910009183808385EC90E09587848784EC90E0D8
:100920009787868780EC90E0918B808B81EC90E0BC
:10093000938B828B82EC90E0958B848B86EC90E09D
:10094000978B868B118E128E138E148E08958F9234
:100950009F92AF92BF92CF92DF92EF92FF920F934E
:100960001F93CF93DF937C018B016C0182E0C80E53
:10097000D11C4701E5E08E0E911CC0E0D0E0F601ED
:1009800061916F014AE050E0C801C5D05C016EE2A0
:10099000C80167D08A0D9B1DC80FD91FC814D90480
:1009A00071F74AE050E0F7016581C801B4D08C0FBF
:1009B0009D1FDF91CF911F910F91FF90EF90DF90DE
:1009C000CF90BF90AF909F908F900895E6EDF1E0AB
:1009D0008DE291E0918380831282138214821582CA
:1009E0000895CF92DF92EF92FF920F931F93CF93D0
:1009F000DF936C017A018B01C0E0D0E0CE15DF05FA
:100A000089F0D8016D918D01D601ED91FC91019095
:100A1000F081E02DC6010995892B11F47E0102C0F9
:100A20002196ECCFC701DF91CF911F910F91FF90DD
:100A3000EF90DF90CF9008956115710579F0FB017B
:100A400001900020E9F73197AF01461B570BDC01FD
:100A5000ED91FC910280F381E02D099480E090E01B
:100A60000895DC01ED91FC910190F081E02D099455
:100A70004F925F926F927F92EF92FF920F931F932C
:100A8000CF93DF93CDB7DEB7A1970FB6F894DEBF53
:100A90000FBECDBF7C01FA01CB0119A2223008F4B0
:100AA0002AE08E010F5D1F4F422E512C612C712CBC
:100AB000BF01A301920185D2F901CA0101501109B8
:100AC0006A3014F4605D01C0695CD8016C93232B1B
:100AD000242B252B69F7B801C701AEDFA1960FB60D
:100AE000F894DEBF0FBECDBFDF91CF911F910F9164
:100AF000FF90EF907F906F905F904F900895211539
:100B0000310541F4DC01ED91FC910190F081E02D83
:100B1000642F0994ADCF9A01462F50E060E070E059
:100B2000EECF813039F018F0823051F008951092F4
:100B30006E00089580916F008D7F80936F000895FF
:100B4000809170008D7F8093700081E08093B00071
:100B50008091B100887F84608093B1001092B300CF
:100B60000895CF93C82F809116018C1307C0E8EB2E
:100B7000F0E0E4918FEF8093160101C0EFEF8E2F2C
:100B8000D0DF60E08C2FCF9116CD1F920F920FB661
:100B90000F9211242F933F934F935F936F937F9303
:100BA0008F939F93AF93BF93EF93FF938091DF0158
:100BB0009091E001A091E101B091E201892B8A2B93
:100BC0008B2B51F18091DC01E091DD01F091DE0190
:100BD0009081892780838091DF019091E001A0912D
:100BE000E101B091E201181619061A061B06BCF4C1
:100BF0008091DF019091E001A091E101B091E201CB
:100C00000197A109B1098093DF019093E001A093BE
:100C1000E101B093E20103C080911601A2DFFF91D0
:100C2000EF91BF91AF919F918F917F916F915F9164
:100C30004F913F912F910F900FBE0F901F901895DD
:100C400040E855E260E070E080E090E000C026E01F
:100C500089E391E095CD1F920F920FB60F92112468
:100C60002F933F934F935F936F937F938F939F93B4
:100C7000AF93BF93EF93FF9383E88093B20080918B
:100C8000E3018F5F8093E301893119F41092E3014E
:100C90002CD0FF91EF91BF91AF919F918F917F9158
:100CA0006F915F914F913F912F910F900FBE0F90D9
:100CB0001F90189583E88093B200E0E7F0E0808110
:100CC0008E7F8083A0EBB0E08C918C7F8C93A1EB26
:100CD000B0E08C91877F8C938C9187608C9380811E
:100CE00081608083089581E008958091E50191E01D
:100CF000980F9093E501882339F021E030E030939C
:100D0000E7012093E60106C078941BDAF8948091FD
:100D1000E50181508093E50108950F931F93CF93D0
:100D2000DF931F92CDB7DEB781E0898347DB88DF91
:100D30000091170110911801F801118210823CDA1C
:100D4000B9DF81E0F80120813181232B09F080E0B7
:100D500089837894789489818823C1F081E0F801AF
:100D600020813181232B09F480E08093E40190916C
:100D7000E40181E0911180E089838981882311F069
:100D8000B2DF02C080E090E08983E5CF5EDAF894BC
:100D900080E090E00F90DF91CF911F910F91089527
:100DA00034D008F481E0089504D06894B1119CC057
:100DB00008957FD088F09F5790F0B92F9927B751A9
:100DC000A0F0D1F0660F771F881F991F1AF0BA950F
:100DD000C9F712C0B13081F086D0B1E0089583C068
:100DE000672F782F8827B85F39F0B93FCCF3869505
:100DF00077956795B395D9F73EF490958095709562
:100E000061957F4F8F4F9F4F0895990F0008550FA1
:100E1000AA0BE0E8FEEF16161706E807F907C0F080
:100E200012161306E407F50798F0621B730B840B88
:100E3000950B39F40A2661F0232B242B252B21F462
:100E400008950A2609F4A140A6958FEF811D811D02
:100E5000089597F99F6780E870E060E008959FEF3C
:100E600080EC089500240A94161617061806090641
:100E7000089500240A941216130614060506089510
:100E8000092E0394000C11F4882352F0BB0F40F498
:100E9000BF2B11F460FF04C06F5F7F4F8F4F9F4FD8
:100EA000089557FD9058440F551F59F05F3F71F05A
:100EB0004795880F97FB991F61F09F3F79F08795C1
:100EC0000895121613061406551FF2CF4695F1DF4A
:100ED00008C0161617061806991FF1CF86957105DA
:100EE000610508940895E894BB2766277727CB010E
:100EF00097F908958ADF08F48FEF08950BD0C0CFDB
:100F0000B1DF28F0B6DF18F0952309F0A2CFA7CF04
:100F10001124EACFC6DFA0F3959FD1F3950F50E0DF
:100F2000551F629FF001729FBB27F00DB11D639F9B
:100F3000AA27F00DB11DAA1F649F6627B00DA11D41
:100F4000661F829F2227B00DA11D621F739FB00DE7
:100F5000A11D621F839FA00D611D221F749F332757
:100F6000A00D611D231F849F600D211D822F762FF0
:100F70006A2F11249F5750408AF0E1F088234AF0ED
:100F8000EE0FFF1FBB1F661F771F881F9150504039
:100F9000A9F79E3F510570F05CCFA6CF5F3FECF301
:100FA000983EDCF3869577956795B795F795E79525
:100FB0009F5FC1F7FE2B880F911D9695879597F936
:100FC0000895A1E21A2EAA1BBB1BFD010DC0AA1F8A
:100FD000BB1FEE1FFF1FA217B307E407F50720F0A2
:100FE000A21BB30BE40BF50B661F771F881F991F1D
:100FF0001A9469F760957095809590959B01AC0166
:10100000BD01CF010895EE0FFF1F0590F491E02D73
:061010000994F894FFCFE3
:101016000000020280000100000000007F43000083
:10102600803F45014501FF0002000000007A03F100
:10103600040A0324031603590300000000A7040052
:00000001FF
